:0400000007EF00F016
:0A0008005682D8ED14F005EF15F054
:1008000000AC089E084C08090809024300020100D8
:10081000C032090400000102020100052400100199
:100820000424020205240600010524010001070535
:1008300081030A000209040100020A000000070502
:100840000202400000070582024000004003410010
:100850004E0041004C004900530045002000440078
:1008600045002000430045004C0055004C0041006D
:10087000200045004D002000540045004D00500070
:100880004F0020005200450041004C0012010002C0
:1008900002000020D8040A000001010200010E033A
:1008A000540041004B004100590041000403090479
:0108B0000047
:1008B20004013205D8A460EF04F062EF04F07EEF89
:1008C20004F030511F0B0009D8A46AEF04F06CEF5A
:1008D20004F07EEF04F00001758F030E040131195C
:1008E200D8A476EF04F078EF04F07CEF04F0010E68
:1008F2004C6E7EEF04F0000E4C6E3251D8A484EFA1
:1009020004F086EF04F006EF06F030511F0B020AE6
:10091200D8A48EEF04F090EF04F006EF06F0345105
:100922000F0B0009D8B498EF04F09AEF04F006EF29
:1009320006F034510F0B176E030E1760A3EF04F08D
:10094200A5EF04F006EF06F0200E4F18D8A4ACEF86
:1009520004F0AEEF04F006EF06F00001758F04011B
:1009620034BFB6EF04F0B8EF04F0D5EF04F0345121
:100972000F0B176E1750020D7E0EF324D96E000E68
:10098200F420DA6EDECF1CF0DDCF1DF034510F0BF8
:10099200176E186A880E1724D96E000E1820DA6EA8
:1009A200DF501B6EF0EF04F034510F0B176E17502F
:1009B200020D780EF324D96E000EF420DA6EDECF2B
:1009C2001CF0DDCF1DF034510F0B176E186A8B0E21
:1009D2001724D96E000E1820DA6EDF501B6E1BB082
:1009E200F5EF04F0F7EF04F0FFEF04F0FB0E1C1438
:1009F2001C6EFF0E1D141D6E04EF05F0040E1C107C
:100A02001C6E1D501D6E34BF09EF05F00BEF05F093
:100A12001CEF05F034510F0B176E1750020D7E0EAE
:100A2200F324D96E000EF420DA6E1CC0DEFF1DC066
:100A3200DDFF2BEF05F034510F0B176E1750020D2F
:100A4200780EF324D96E000EF420DA6E1CC0DEFF9D
:100A52001DC0DDFF030E3119D8A432EF05F034EFCB
:100A620005F06EEF05F01CC0D9FF1DC0DAFFDFAE46
:100A72003DEF05F03FEF05F060EF05F034BF44EFC6
:100A820005F046EF05F054EF05F034510F0B176EE9
:100A9200186A880E1724D96E000E1820DA6E00012B
:100AA200DF8260EF05F034510F0B176E186A8B0E60
:100AB2001724D96E000E1820DA6E0001DF821CC0E6
:100AC200D9FF1DC0DAFF000EDB841CC0D9FF1DC098
:100AD200DAFF000EDB8E06EF06F0040E1C181C6E09
:100AE2001D501D6E1CC0D9FF1DC0DAFFDFAE7CEFAA
:100AF20005F07EEF05F09AEF05F01CC0D9FF1DC08E
:100B0200DAFF7F0EDF161CC0D9FF1DC0DAFF000E10
:100B1200DB8C000E106E050E0F6E1CC011F01DC096
:100B220012F0000E146E020E136EBFEC13F0A0EF63
:100B320005F01CC0D9FF1DC0DAFF000EDB8C040ECD
:100B42001C181C6E1D501D6E1BB2AAEF05F0ACEFF7
:100B520005F0B7EF05F01CC0D9FF1DC0DAFFDFAE0C
:100B6200B5EF05F0B7EF05F0EFEF05F0040134BF84
:100B7200BDEF05F0BFEF05F0CDEF05F034510F0BDF
:100B8200176E186A880E1724D96E000E1820DA6EB6
:100B92000001DF92D9EF05F034510F0B176E186A7E
:100BA2008B0E1724D96E000E1820DA6E0001DF9228
:100BB2001CC0D9FF1DC0DAFF3B0EDF16000E106EFF
:100BC200050E0F6E1CC011F01DC012F0000E146E47
:100BD200020E136EBFEC13F0F5EF05F01CC0D9FF47
:100BE2001DC0DAFF3B0EDF16040134510F0B176EE6
:100BF200186A700E1724196E0F0E18201A6E19C07B
:100C0200D9FF1AC0DAFFFE0EDF1612004F04D8A475
:100C12000DEF06F00FEF06F01CEF06F06DBA14EFC1
:100C220006F016EF06F01CEF06F0000E686E698003
:100C32006988020E4F6E68A421EF06F023EF06F0DA
:100C42002DEF06F069A428EF06F02AEF06F02DEF4B
:100C520006F06894C6EC15F06DA232EF06F034EFA0
:100C620006F037EF06F0A19A1AEF07F068A03CEF02
:100C720006F03EEF06F04BEF06F069A043EF06F0F8
:100C820045EF06F04BEF06F09DEC0CF0A08A040E47
:100C92004F6E689068A850EF06F052EF06F05BEFD7
:100CA20006F069A857EF06F059EF06F05BEF06F081
:100CB20087EC16F068AC60EF06F062EF06F08DEF9D
:100CC20006F069AC67EF06F069EF06F077EF06F021
:100CD200000E106E730E0F6E000E116E000E126E6D
:100CE200000E146E010E136EBFEC13F0689C56ECEE
:100CF20016F04850D8B480EF06F082EF06F083EF8A
:100D020006F048064850D8A489EF06F08BEF06F0AB
:100D12008DEF06F022EC11F068AA92EF06F094EF44
:100D220006F09DEF06F069AA99EF06F09BEF06F038
:100D32009DEF06F0A8EC14F068A2A2EF06F0A4EF73
:100D420006F0BAEF06F069A2A9EF06F0ABEF06F0E3
:100D5200BAEF06F07F0E106E0F68000E116E000ED5
:100D6200126E000E146E010E136EBFEC13F0000E25
:100D72006A6E040E4F60C0EF06F0C2EF06F0C5EFD8
:100D820006F0A19A1AEF07F069A6CAEF06F0CCEFB7
:100D920006F019EF07F0000E216E68A6D3EF06F0F9
:100DA200D5EF06F019EF07F06CCF52F05230E8326F
:100DB200E8320F0B4A6E689652B4E2EF06F0E4EFA7
:100DC20006F0EEEF06F0880E4A24D96EDA6A000EBB
:100DD200DA220001DF70F6EF06F08B0E4A24D96E9C
:100DE200DA6A000EDA220001DF704A50D8A4FCEF62
:100DF20006F0FEEF06F002EF07F069EC12F010EFDA
:100E020007F0000E106E720E0F6E520E116E000E73
:100E1200126E000E146E000E136EBFEC13F0212A38
:100E2200030E216417EF07F019EF07F0CEEF06F07B
:100E3200A19A1200A09A36503710D8B423EF07F0C7
:100E420025EF07F033EF07F036C0D9FF37C0DAFFDE
:100E5200DFAE2EEF07F030EF07F033EF07F0A08A96
:100E6200E8EF07F0030E4118D8A43AEF07F03CEF81
:100E720007F03EEF07F0000E416E4150D8A444EF58
:100E820007F046EF07F049EF07F0A08AE8EF07F016
:100E9200020E4118D8A450EF07F052EF07F066EFA8
:100EA20007F0010E0001A86F000EA96F000EAA6FD5
:100EB200000EAB6F020EBCEC0AF0A8C036F0A9C05F
:100EC20037F0030E416EE7EF07F04104D8A46CEF50
:100ED20007F06EEF07F0E7EF07F0400E406474EFA3
:100EE20007F076EF07F07BEF07F0400E0001B46FDA
:100EF2007DEF07F040C0B4F00001B451405C406E99
:100F0200000E306E050E316EB4C0B3F03F50D8A45F
:100F12008DEF07F08FEF07F0B9EF07F0A0EF07F0C2
:100F220033C0D9FF34C0DAFF30C0E1FF31C0E2FF85
:100F3200DFCFE7FF304A312A334A342AB307B351AD
:100F4200D8A4A6EF07F0A8EF07F091EF07F0C1EFE2
:100F520007F033C0D9FF34C0DAFF30C0E1FF31C03F
:100F6200E2FFDFCFE7FF304A312A334A342AB307A0
:100F7200B351D8A4BFEF07F0C1EF07F0AAEF07F013
:100F82004050D8A4C7EF07F0C9EF07F0D8EF07F039
:100F9200400EB419D8A4D0EF07F0D2EF07F0D6EF85
:100FA20007F0020E416ED8EF07F0030E416E010EFC
:100FB200A86F000EA96F050EAA6FB4C0ABF0020EA7
:100FC200BCEC0AF0A8C036F0A9C037F0A08A120023
:100FD200A8C0B2F0A9C0B3F00001AC51AD11D8A4C1
:100FE200F5EF07F0F7EF07F0F9EF07F0A4EF08F0DD
:100FF200B2C0D9FFB3C0DAFFAAC0DFFFAC51B2253D
:10100200AE6FAD51B321AF6FFF0EAE25D96EFF0E9D
:10101200AF21DA6EAAC0DFFFAD5107E1030EAC5D6E
:10102200D8B016EF08F018EF08F01AEF08F0A4EFA6
:1010320008F020EE01F0B251D926B351DA22AAC04B
:10104200DFFF20EE02F0B251D926B351DA22AAC054
:10105200DFFFAC51B225AE6FAD51B321AF6FFE0EC3
:10106200AE25D96EFF0EAF21DA6EAAC0DFFFAC51FA
:10107200B225AE6FAD51B321AF6FFD0EAE25D96E65
:10108200FF0EAF21DA6EAAC0DFFFAD5107E1070EF6
:10109200AC5DD8B04FEF08F051EF08F053EF08F015
:1010A200A4EF08F020EE03F0B251D926B351DA22B0
:1010B200AAC0DFFFAC51B225AE6FAD51B321AF6F05
:1010C200FC0EAE25D96EFF0EAF21DA6EAAC0DFFF8D
:1010D200AD5107E1090EAC5DD8B072EF08F074EFC4
:1010E20008F076EF08F0A4EF08F0B2C0AEF0B3C09B
:1010F200AFF0AE1FAF1FAE4BAF2B030EAE15B06FEE
:10110200B16BB051B227B151B323B051AC5FB15101
:10111200AD5BFC0EAC17FF0EAD179BEF08F0B2C033
:10112200D9FFB3C0DAFFAAC0DFFFAC07D8A0AD0772
:10113200B24BB32BAC51AD11D8A4A2EF08F0A4EF7F
:1011420008F090EF08F0120001C00BF002C00CF0A2
:1011520005500610D8A4B0EF08F0B2EF08F0B4EFD3
:1011620008F05FEF09F00BC0D9FF0CC0DAFF03C033
:10117200DFFF05500B24076E06500C20086EFF0E91
:101182000724D96EFF0E0820DA6E03C0DFFF065077
:1011920007E1030E055CD8B0D1EF08F0D3EF08F0F9
:1011A200D5EF08F05FEF09F020EE01F00B50D926E1
:1011B2000C50DA2203C0DFFF20EE02F00B50D926DA
:1011C2000C50DA2203C0DFFF05500B24076E0650D5
:1011D2000C20086EFE0E0724D96EFF0E0820DA6E70
:1011E20003C0DFFF05500B24076E06500C20086E6B
:1011F200FD0E0724D96EFF0E0820DA6E03C0DFFF52
:10120200065007E1070E055CD8B00AEF09F00CEFB3
:1012120009F00EEF09F05FEF09F020EE03F00B503A
:10122200D9260C50DA2203C0DFFF05500B24076ECB
:1012320006500C20086EFC0E0724D96EFF0E082003
:10124200DA6E03C0DFFF065007E1090E055CD8B075
:101252002DEF09F02FEF09F031EF09F05FEF09F000
:101262000BC007F00CC008F0071E081E074A082A28
:10127200030E0714096E0A6A09500B260A500C2243
:101282000950055E0A50065AFC0E0516FF0E061698
:1012920056EF09F00BC0D9FF0CC0DAFF03C0DFFF25
:1012A2000506D8A006060B4A0C2A05500610D8A43B
:1012B2005DEF09F05FEF09F04BEF09F01200800ECD
:1012C20004013019D8A468EF09F06AEF09F019EFA8
:1012D2000AF0C00E0001756FFFEF09F08C0E0001DD
:1012E200726F080E736F000E776F120E766F19EF22
:1012F2000AF03251D8A480EF09F082EF09F0C3EF6F
:1013020009F03251020D070EF324F66E080EF42096
:10131200F76E0900F5CF72F00A00F5CF73F0020EF6
:1013220000017225016E000E7321026E01C0F6FFEC
:1013320002C0F7FFF86A070EF76403D00800F55001
:1013420005D0F6CFE1FFF7CFE2FFE7500001766F5D
:10135200030E7225016E000E7321026E01C0F6FFAC
:1013620002C0F7FFF86A070EF76403D00800F550D1
:1013720005D0F6CFE1FFF7CFE2FFE7500001776F2C
:1013820019EF0AF0000E0001756F19EF0AF0030E53
:101392003261CEEF09F0D0EF09F0F5EF09F03251EA
:1013A200020D010EF324F66E080EF420F76E09000A
:1013B200F5CF72F00A00F5CF73F072C0F6FF73C07A
:1013C200F7FFF86A070EF76403D00800F55005D05E
:1013D200F6CFE1FFF7CFE2FFE750016E01500001C7
:1013E200766F776B19EF0AF0000E0001756F19EF37
:1013F2000AF0000E0001756F19EF0AF00401335173
:10140200016E026A0250000AD8B40AEF0AF0FAEF3B
:1014120009F00150010AD8B46FEF09F0030AD8B4F9
:101422007AEF09F0010AD8B4C8EF09F0FAEF09F02F
:10143200120020EE01F03C50D9263D50DA22DF5056
:10144200026E025000016E5D000E6F59D8B02CEF93
:101452000AF02EEF0AF030EF0AF06EC002F00250EE
:101462006E5F000E6F5B000E016E47EF0AF0500ECA
:101472000124D96EDA6A040EDA226AC0E1FF6BC077
:10148200E2FFDFCFE7FF6A4B6B2B012A0250015CC0
:10149200D8A04EEF0AF050EF0AF038EF0AF06E5182
:1014A2006F11D8B457EF0AF059EF0AF092EF0AF031
:1014B20020EE01F03A50D9263B50DA22200EDF6EA0
:1014C20020EE02F03A50D9263B50DA22500EDE6E60
:1014D200040EDD6E3CC0D9FF3DC0DAFFDFBC74EF05
:1014E2000AF076EF0AF084EF0AF03AC0D9FF3BC067
:1014F200DAFF480EDF6E3AC0D9FF3BC0DAFF000EBA
:10150200DB8EBBEF0AF03AC0D9FF3BC0DAFF080E10
:10151200DF6E3AC0D9FF3BC0DAFF000EDB8EBBEFB5
:101522000AF020EE01F03A50D9263B50DA22200E82
:10153200DF6E20EE02F03A50D9263B50DA22300E0E
:10154200DE6E040EDD6E3AC0D9FF3BC0DAFF040E38
:10155200DF6E3AC0D9FF3BC0DAFF000EDB8E6D9F13
:101562004750D8A4B7EF0AF0B9EF0AF0BBEF0AF080
:1015720022EC11F012000001B06F0001A851D8B4A2
:10158200C5EF0AF0C7EF0AF0D5EF0AF0B051020D2D
:10159200780EF324D96E000EF420DA6EDECFB1F0AD
:1015A200DDCFB2F0E1EF0AF0B051020D7E0EF3246E
:1015B200D96E000EF420DA6EDECFB1F0DDCFB2F0DC
:1015C200B151B211D8A4E8EF0AF0EAEF0AF0F0EF55
:1015D2000AF0000EA86F000EA96F5CEF0BF020EE70
:1015E20002F0B151D926B251DA22A9C0DEFFAAC057
:1015F200DDFF20EE01F0B151D926B251DA22ABC0A3
:10160200DFFFB1C0D9FFB2C0DAFF400EDF16B1C0B2
:10161200D9FFB2C0DAFF000EDB86B1C0D9FFB2C07B
:10162200DAFF000EDB8EA851D8B41AEF0BF01CEFD4
:101632000BF03BEF0BF0B051020D780EF324D96E94
:10164200000EF420DA6EDECFACF0DDCFADF0040E8A
:10165200AC19AE6FAD51AF6FB051020D780EF324DD
:10166200D96E000EF420DA6EAEC0DEFFAFC0DDFF31
:1016720058EF0BF0B051020D7E0EF324D96E000E1E
:10168200F420DA6EDECFACF0DDCFADF0040EAC1993
:10169200AE6FAD51AF6FB051020D7E0EF324D96E15
:1016A200000EF420DA6EAEC0DEFFAFC0DDFFB1C0C7
:1016B200A8F0B2C0A9F012006D98000175BF64EFE6
:1016C2000BF066EF0BF0ABEF0BF06DAF6BEF0BF0C7
:1016D2006DEF0BF07FEF0BF0020E4D6E4350D8A46E
:1016E20075EF0BF077EF0BF079EF0BF0C5EC12F022
:1016F200000E456E000E466EFDEF0BF020EE01F07F
:101702003A50D9263B50DA22200EDF6E20EE02F04C
:101712003A50D9263B50DA22300EDE6E040EDD6ED0
:101722003AC0D9FF3BC0DAFF0C0EDF6E3AC0D9FFD8
:101732003BC0DAFF000EDB8E78C0D9FF79C0DAFF3A
:10174200040EDF6E78C0D9FF79C0DAFF000EDB8E9F
:10175200FDEF0BF0040130AFB1EF0BF0B3EF0BF084
:10176200CFEF0BF0010E4D6E4450D8A4BBEF0BF03F
:10177200BDEF0BF0BFEF0BF0C5EC12F0000E456EA3
:10178200000E466E4750D8A4C9EF0BF0CBEF0BF01A
:10179200FDEF0BF022EC11F0FDEF0BF0020E4D6E9F
:1017A20020EE01F03A50D9263B50DA22200EDF6EAD
:1017B20020EE02F03A50D9263B50DA22300EDE6E8D
:1017C200040EDD6E3AC0D9FF3BC0DAFF040EDF6EB5
:1017D2003AC0D9FF3BC0DAFF000EDB8E000E456E29
:1017E200000E466E4750D8A4F9EF0BF0FBEF0BF05A
:1017F200FDEF0BF0CBEF0BF01200A09A000E6A6E19
:10180200000E686E000E706E710E0001A86F0F0E52
:10181200A96F000EAB6F000EAA6F000EAD6F020E25
:10182200AC6FE9EC07F0160E6F6E9F0E6B6E7B0EBF
:10183200696E000E0001B46FB451040D000EF32462
:10184200D96E040EF420DA6EDE6ADE6ADE6ADD6AC2
:10185200B42B0B0EB46530EF0CF032EF0CF01DEF31
:101862000CF06D8C000E6E6E6D986D9C6896000E7D
:10187200756F000E6D6F000E6F6F000E6E6F68B6A3
:1018820045EF0CF047EF0CF037EF0CF0010E466E0F
:10189200010E456E000E446E000E436E000E4B6E3E
:1018A200000EB46FB451020D780EF324D96E000EFF
:1018B200F420DA6EDE6ADD6AB451020D7E0EF32484
:1018C200D96E000EF420DA6EDE6ADD6A8B0EB42564
:1018D200D96EDA6A000EDA22DF6A880EB425D96E72
:1018E200DA6A000EDA22DF6AB42B020EB4657CEFEC
:1018F2000CF07EEF0CF053EF0CF0080E786F040E34
:10190200796F160E706E040E0401036F300E026FB3
:10191200200E016F040E006F008F000E536E000E3A
:101922002C6E000E2D6E000E2E6E000E2F6E000E0F
:10193200426E000E4F6E1200A09A000E6A6E000EEA
:10194200686E000E706E710E016E0F0E026E000E4A
:10195200046E000E036E000E066E020E056EA5ECFE
:1019620008F0160E6F6E9F0E6B6E7B0E696E000E88
:101972000D6E0D50040D000EF324D96E040EF420EA
:10198200DA6EDE6ADE6ADE6ADD6A0D2A0B0E0D642D
:10199200CDEF0CF0CFEF0CF0BAEF0CF06D8C000E27
:1019A2006E6E6D986D9C6896000E0001756F000E4C
:1019B2006D6F000E6F6F000E6E6F68B6E3EF0CF086
:1019C200E5EF0CF0D4EF0CF0010E466E010E456E01
:1019D200000E446E000E436E000E4B6E000E0D6E36
:1019E2000D50020D780EF324D96E000EF420DA6E3B
:1019F200DE6ADD6A0D50020D7E0EF324D96E000EF2
:101A0200F420DA6EDE6ADD6A8B0E0D24D96EDA6A94
:101A1200000EDA22DF6A880E0D24D96EDA6A000E11
:101A2200DA22DF6A0D2A020E0D641AEF0DF01CEFA6
:101A32000DF0F1EF0CF0080E0001786F040E796FD3
:101A4200160E706E040E0401036F300E026F200E2C
:101A5200016F040E006F008F000E536E000E2C6E8D
:101A6200000E2D6E000E2E6E000E2F6E000E426EB8
:101A7200000E4F6E1200096E0150D8B443EF0DF004
:101A820045EF0DF053EF0DF00950020D780EF324DF
:101A9200D96E000EF420DA6EDECF0AF0DDCF0BF045
:101AA2005FEF0DF00950020D7E0EF324D96E000E89
:101AB200F420DA6EDECF0AF0DDCF0BF00A500B1005
:101AC200D8A466EF0DF068EF0DF06EEF0DF0000E8A
:101AD200016E000E026EDAEF0DF020EE02F00A50F7
:101AE200D9260B50DA2202C0DEFF03C0DDFF20EE52
:101AF20001F00A50D9260B50DA2204C0DFFF0AC0D7
:101B0200D9FF0BC0DAFF400EDF160AC0D9FF0BC0A7
:101B1200DAFF000EDB860AC0D9FF0BC0DAFF000E27
:101B2200DB8E0150D8B498EF0DF09AEF0DF0B9EFBB
:101B32000DF00950020D780EF324D96E000EF42038
:101B4200DA6EDECF05F0DDCF06F0040E0518076E63
:101B52000650086E0950020D780EF324D96E000E5D
:101B6200F420DA6E07C0DEFF08C0DDFFD6EF0DF00D
:101B72000950020D7E0EF324D96E000EF420DA6EA7
:101B8200DECF05F0DDCF06F0040E0518076E065015
:101B9200086E0950020D7E0EF324D96E000EF42059
:101BA200DA6E07C0DEFF08C0DDFF0AC001F00BC01D
:101BB20002F01200B2EC16F03AEC16F01EEC16F03F
:101BC2000009D8B4E7EF0DF0E9EF0DF06FEF0EF07A
:101BD200990E0001B36F000EB46F080EB56F0DECD5
:101BE20012F00001BA6FBA51D8B4FAEF0DF0FCEF5F
:101BF2000DF06FEF0EF0000EB96F000EBC6F000E0D
:101C0200BD6F99C0BFF0BF390F0BBE6F42EF0EF030
:101C1200BDEC16F06FEF0EF0BFEC16F06FEF0EF0AA
:101C2200BF510F0BBB6FBB5103EC14F06FEF0EF003
:101C3200BBEC16F06FEF0EF0B9EC16F06FEF0EF092
:101C4200BF510F0BBD6FBD51E5EC15F06FEF0EF0FC
:101C5200C00EA86F000EA96F02EC16F0C00E0001B4
:101C6200A86F000EA96F020EAA6F9DEC16F06FEF1F
:101C72000EF0BF510F0BBC6FBC5158EC15F06FEF5B
:101C82000EF0BE51B76FB86BB851000AD8B44CEF22
:101C92000EF06FEF0EF0B751000AD8B409EF0EF054
:101CA200010AD8B40DEF0EF0030AD8B411EF0EF00A
:101CB200010AD8B421EF0EF0070AD8B419EF0EF0DA
:101CC200010AD8B41DEF0EF0030AD8B429EF0EF0C2
:101CD200010AD8B43AEF0EF06FEF0EF01BEC07F0EA
:101CE200DFEF0DF007EF00F004013039E832030BAB
:101CF2000009D8B47FEF0EF081EF0EF0CEEF0EF0B8
:101D020007EF0FF00001758F080E4F6E07EF0FF00F
:101D120060EC09F007EF0FF09AEC11F007EF0FF00B
:101D2200530E0001726F000E736F7581010E766F94
:101D3200758F07EF0FF090EC0FF007EF0FF059ECF3
:101D420004F007EF0FF0500E34250001726F736B31
:101D5200000E73237581010E766F758F07EF0FF0FA
:101D62000001758F500E04013425D96EDA6A000E17
:101D7200DA2232C4DFFF07EF0FF0000E106E020E00
:101D82000F6E000E116E000E126E000E146E000E1B
:101D9200136EBFEC13F007EF0FF031511E6E1F6A86
:101DA2001F50000AD8B4D8EF0EF007EF0FF01E5004
:101DB200000AD8B49CEF0EF0010AD8B4A0EF0EF0DE
:101DC200020AD8B4A0EF0EF0060AD8B483EF0EF0E0
:101DD200030AD8B489EF0EF0010AD8B4BEEF0EF0B0
:101DE2000F0AD8B491EF0EF0010AD8B48DEF0EF0BD
:101DF200030AD8B4A4EF0EF0010AD8B4B1EF0EF082
:101E0200070AD8B407EF0FF007EF0FF01200200E09
:101E1200016E0001775107E1200E765DD8B014EF14
:101E22000FF016EF0FF02EEF0FF076C001F04E50CC
:101E3200D8A41EEF0FF020EF0FF024EF0FF0010EE9
:101E42004E6E2EEF0FF04E04D8A42AEF0FF02CEFB7
:101E52000FF02EEF0FF0020E4E6E0150765F000E65
:101E6200775B20EE01F07851D9267951DA2201C050
:101E7200DFFF500E386E040E396E75B143EF0FF06E
:101E820045EF0FF087EF0FF062EF0FF072C0F6FF31
:101E920073C0F7FFF86A38C0D9FF39C0DAFF070EFE
:101EA200F76403D00800F55005D0F6CFE1FFF7CF75
:101EB200E2FFE750DF6E0001724B732B384A392A7A
:101EC20001060150D8A468EF0FF06AEF0FF047EF58
:101ED2000FF08FEF0FF072C0F6FF73C0F7FFF86AD2
:101EE20038C0D9FF39C0DAFF070EF76403D0080003
:101EF200F55005D0F6CFE1FFF7CFE2FFE750DF6EF6
:101F02000001724B732B384A392A01060150D8A4BA
:101F12008DEF0FF08FEF0FF06CEF0FF01200000E4D
:101F22000401506F000E516FEDEF0FF00001758F3D
:101F32004C04D8A49FEF0FF0A1EF0FF007EF10F0C1
:101F42000401508307EF10F00001758F07EF10F0C6
:101F52000001758F040134BFB1EF0FF0B3EF0FF042
:101F6200C4EF0FF034510F0B016E0150020D7E0EC3
:101F7200F324D96E000EF420DA6EDECF03F0DDCF4B
:101F820004F0D3EF0FF034510F0B016E0150020D2C
:101F9200780EF324D96E000EF420DA6EDECF03F051
:101FA200DDCF04F003C0D9FF04C0DAFFDFAEDCEFFF
:101FB2000FF0DEEF0FF007EF10F003C0D9FF04C0FF
:101FC200DAFFDFA4E7EF0FF0E9EF0FF007EF10F011
:101FD200010E506F07EF10F030511F0B016E026AB5
:101FE2000250000AD8B4F8EF0FF007EF10F00150DA
:101FF200000AD8B497EF0FF0010AD8B4A5EF0FF09A
:10200200030AD8B4A9EF0FF007EF10F0000175AF83
:102012000DEF10F00FEF10F016EF10F0500E726F80
:10202200040E736F7581020E766F12000401305137
:102032001F0BE806D8B420EF10F022EF10F024EFC7
:1020420010F09CEF10F03039E832030BE806D8B4F8
:102052002DEF10F02FEF10F031EF10F09CEF10F099
:102062003451D8B437EF10F039EF10F07BEF10F0A5
:102072003405D8B43FEF10F041EF10F07BEF10F0D1
:102082009CEF10F0910E0001726F000E736F000E44
:10209200776F080E766F7581758F9CEF10F0910E39
:1020A2000001726F000E736F758F9CEF10F036C4D3
:1020B2006EF037C46FF0A10E00016A6F000E6B6FF5
:1020C200000E706F000E716F6D8F9CEF10F0A10EFD
:1020D2000001726F000E736F000E776F070E766F3E
:1020E200C10E756F9CEF10F032C43EF00001758F87
:1020F2009CEF10F03151016E026A0250000AD8B40E
:1021020085EF10F09CEF10F00150000AD8B443EFB5
:1021120010F0010AD8B450EF10F0210AD8B458EFE9
:1021220010F0010AD8B468EF10F0030AD8B475EFC2
:1021320010F09CEF10F0120078C0D9FF79C0DAFFDE
:102142000001000EDFBC010E026E040E7819786FDA
:102152007951796F080E4F18D8A4B2EF10F0B4EF8E
:1021620010F0C6EF10F0040132517F0B6E6E6E500C
:10217200D8B4BEEF10F0C0EF10F0C4EF10F0100EA4
:102182004F6EC6EF10F0040E4F6E4D04D8A4CCEF84
:1021920010F0CEEF10F016EF11F0000120EE02F079
:1021A2007851D9267951DA22500EDE6E040EDD6E98
:1021B20008EC0FF0020E4E18D8A4E2EF10F0E4EF94
:1021C20010F0F2EF10F078C0D9FF79C0DAFF040EF8
:1021D200DF6E78C0D9FF79C0DAFF000EDB8E21EF07
:1021E20011F00250D8A4F8EF10F0FAEF10F008EF57
:1021F20011F078C0D9FF79C0DAFF480EDF6E78C0DF
:10220200D9FF79C0DAFF000EDB8E21EF11F078C022
:10221200D9FF79C0DAFF080EDF6E78C0D9FF79C026
:10222200DAFF000EDB8E21EF11F000016DAF1CEF23
:1022320011F01EEF11F01FEF11F06D9F000E4D6EA9
:1022420012004650D8A428EF11F02AEF11F099EFAE
:1022520011F0010E466E4550D8A432EF11F034EF62
:1022620011F099EF11F0010E456E020E4D18D8A42F
:102272003DEF11F03FEF11F055EF11F0000120EEAC
:1022820001F07851D9267951DA22DF6A78C0D9FF74
:1022920079C0DAFF480EDF6E78C0D9FF79C0DAFF65
:1022A200000EDB8E99EF11F04D04D8A45BEF11F014
:1022B2005DEF11F099EF11F0000E496E20EE01F082
:1022C2003C50D9263D50DA22200EDF6E20EE02F07D
:1022D2003C50D9263D50DA22300EDE6E040EDD6E01
:1022E2003CC0D9FF3DC0DAFF040EDF6E3CC0D9FF0F
:1022F2003DC0DAFF000EDB8E010E496E20EE01F0CA
:102302003A50D9263B50DA22200EDF6E20EE02F040
:102312003A50D9263B50DA22300EDE6E040EDD6EC4
:102322003AC0D9FF3BC0DAFF800EDF6E99EF11F0A1
:1023320012000001758F710E016E0F0E026E000EFB
:10234200046E000E036E000E066E020E056EA5EC04
:1023520008F0000E016E040E026E000E046E000EF6
:10236200036E000E066E300E056EA5EC08F06D8C45
:10237200000E176E8B0E1724D96EDA6A000EDA225F
:10238200DF6A880E1724D96EDA6A000EDA22DF6A53
:10239200172A020E1764D0EF11F0D2EF11F0BBEF43
:1023A20011F0500E016E000E026E000E046E000E51
:1023B200036E000E066E020E056EA5EC08F06D9C13
:1023C200080E0001786F040E796F000E3C6E040E49
:1023D2003D6E3CC03AF03DC03BF032C453F0535026
:1023E200D8A4F6EF11F0F8EF11F0FCEF11F0100E97
:1023F2004F6E0CEF12F0000E106E010E0F6E530EA8
:10240200116E000E126E000E146E010E136EBFECF2
:1024120013F0200E4F6E1200000E0001906F8E51CD
:102422008F11D8B417EF12F019EF12F024EF12F057
:102432008EC0D9FF8FC0DAFFDFBE22EF12F024EF89
:1024420012F066EF12F020EE01F08E51D9268F5174
:10245200DA22B551DE5CD8B031EF12F033EF12F070
:102462003BEF12F020EE01F08E51D9268F51DA2285
:10247200DF50B56F000E906F4EEF12F0400E9025B8
:10248200D96EDA6A050EDA229051B325E16E000E9A
:10249200B421E26EDFCFE7FF902BB551905DD8A05B
:1024A20055EF12F057EF12F03FEF12F0000EA86F47
:1024B200400EA96F050EAA6F400EAB6F020EBCEC68
:1024C2000AF0A8C08EF0A9C08FF00001905112004E
:1024D2002D0E486E52C020F0FD0E2016D8A474EFC7
:1024E20012F076EF12F0B8EF12F052C020F0D8904E
:1024F20020323F0E20162050040D000EF3243C6EB5
:10250200040EF4203D6E3CC03AF03DC03BF0040E98
:102512003A183A6E3B503B6E3CC0D9FF3DC0DAFFE1
:10252200DF30E8320F0B0D0AD8A49AEF12F09CEFBD
:1025320012F0B4EF12F0300E016E040E026E20EEB5
:1025420002F03C50D9263D50DA22DECF03F0DDCF37
:1025520004F0000E066E080E056E30EC15F077ECF6
:1025620013F0C4EF12F03DEC14F0C4EF12F052502D
:10257200FD0B040AD8A4C0EF12F0C2EF12F0C4EFB0
:1025820012F09DEC10F01200000E446E000E436E2D
:10259200020E4D18D8A4D0EF12F0D2EF12F0F2EFE3
:1025A20012F020EE01F03A50D9263B50DA22200EEA
:1025B200DF6E20EE02F03A50D9263B50DA22500E5E
:1025C200DE6E040EDD6E3AC0D9FF3BC0DAFF480E64
:1025D200DF6E3AC0D9FF3BC0DAFF000EDB8E1EEF82
:1025E20013F0000176510401365D000177510401B8
:1025F2003759D8B0FFEF12F001EF13F005EF13F0E7
:1026020036C476F037C477F008EC0FF0000120EE04
:1026120002F07851D9267951DA22500EDE6E040E7C
:10262200DD6E78C0D9FF79C0DAFF480EDF6E78C060
:10263200D9FF79C0DAFF000EDB8E1200086E000EA1
:10264200096E040E0A6E0150026E036AD8900236B9
:1026520003360850046E056AD89004360536D890C1
:102662000436053602500424066E03500520076E18
:10267200D89006360736D890063607360650092611
:1026820007500A2209C0D9FF0AC0DAFFDF9E0150B3
:10269200D8A44EEF13F050EF13F05EEF13F0085092
:1026A200020D7E0EF324D96E000EF420DA6E09C0FC
:1026B200DEFF0AC0DDFF6AEF13F00850020D780E4C
:1026C200F324D96E000EF420DA6E09C0DEFF0AC0D0
:1026D200DDFF09C0D9FF0AC0DAFFDF9C20EE04F05B
:1026E2000950D9260A50DA22DF8C1200000E4E6EF3
:1026F200000E476E000E446E000E436E000E496ED1
:10270200000E4D6E78C0D9FF79C0DAFF7F0EDF165A
:10271200040E00017819786F7951796F78C0D9FF6A
:1027220079C0DAFF7F0EDF16040E7819786F7951BF
:10273200796F3AC0D9FF3BC0DAFF7F0EDF16000E79
:10274200756F000E776F000E766F000E6D6F000EC4
:102752006F6F000E6E6F75EC0EF0000E106E030EB2
:102762000F6E000E116E000E126E000E146E000E31
:10277200136EBFEC13F05DEC0BF01200C9EF13F017
:1027820077EC14F002EF14F017EC10F002EF14F0F3
:102792000FC015F010C016F01650000AD8B4D8EFCA
:1027A20013F07F0AD8B4FBEF13F002EF14F01550C8
:1027B200010AD8B4C1EF13F0030AD8B402EF14F03F
:1027C200010AD8B4C5EF13F0060AD8B402EF14F028
:1027D200770AD8B402EF14F0010AD8B402EF14F069
:1027E200070AD8B402EF14F0010AD8B402EF14F0C9
:1027F20002EF14F01550FF0AD8B402EF14F002EF02
:1028020014F012000001A96FA9C0A8F0010E000186
:10281200A8178C50A819FE0BA8198C6EA9C0A8F095
:10282200D890A833010EA817A8478C50A819FD0B01
:10283200A8198C6EA9C0A8F0D890A833D890A83354
:10284200010EA817A847A8478C50A819FB0BA81976
:102852008C6EA9C0A8F0D890A833D890A833D8908D
:10286200A833010EA817A847A847A8478C50A81953
:10287200F70BA8198C6E1200020E4D18D8A444EF63
:1028820014F046EF14F04AEF14F01AEC0AF076EF67
:1028920014F0000E4D6E4950D8A452EF14F054EFCC
:1028A20014F074EF14F020EE01F03A50D9263B50A8
:1028B200DA22200EDF6E20EE02F03A50D9263B508B
:1028C200DA22300EDE6E040EDD6E3AC0D9FF3BC056
:1028D200DAFF0C0EDF6E3AC0D9FF3BC0DAFF000E02
:1028E200DB8E76EF14F0000E496E1200000E00012E
:1028F200A16FC20EA26F010EA36F000EA46F000E95
:10290200A56F000EA66F080EA76F000E906F1A0E2D
:102912000B6E010E7FEC15F01E0E0B6E020E7FEC9D
:1029220015F0000E016E400E026E050E036E400E93
:10293200046E020E3CEC0DF001C08EF002C08FF06E
:10294200000E366E000E376E000E416E120070A041
:10295200ADEF14F0AFEF14F0D6EF14F03CC0D9FF96
:102962003DC0DAFF800EDE18D8A4BAEF14F0BCEF37
:1029720014F0D5EF14F078C0D9FF79C0DAFF840ED5
:10298200DE18D8A4C7EF14F0C9EF14F0D5EF14F095
:102992003CC0D9FF3DC0DAFF0C0EDF6E3CC0D9FF50
:1029A2003DC0DAFF000EDB8E7090689A12000600BE
:1029B200E1CF22F0E2CF23F0D9CF24F0DACF25F015
:1029C200F3CF26F0F4CF27F0F6CF28F0F7CF29F097
:1029D200F8CF2AF0F5CF2BF06FEC16F02BC0F5FFF5
:1029E2002AC0F8FF29C0F7FF28C0F6FF27C0F4FF6E
:1029F20026C0F3FF25C0DAFF24C0D9FF23C0E2FFBF
:102A020022C0E1FF56921100840EF66E2D0EF76E73
:102A1200000EF86E0900F5CFC0F00900F5CFC1F045
:102A2200820EF66E2D0EF76E000EF86E0900F5CFCF
:102A320054F00900F5CF55F000EE60F0480EEE6A52
:102A4200E806FDE100EE2CF0280EEE6AE806FDE154
:102A520056905692000EF86E0001DBEF0DF003C0A7
:102A620009F004C00AF001C007F002C008F04AEF02
:102A720015F009C0D9FF0AC0DAFFDF500B6E094A10
:102A82000A2A07C0D9FF08C0DAFF0BC0DFFF074AD6
:102A9200082A0506D8A00606052806E10628D8A4B5
:102AA20055EF15F057EF15F03AEF15F0120000014F
:102AB200AA6F68EF15F0898A89987EEF15F08988E8
:102AC200899A7EEF15F08988898A7EEF15F00001D8
:102AD200AA51A86FA96BA951000AD8B473EF15F0D7
:102AE20064EF15F0A851000AD8B45CEF15F0010AA2
:102AF200D8B460EF15F064EF15F012000E6E0BA45F
:102B020085EF15F087EF15F08CEF15F0000E016ED2
:102B12000E501FEC13F00BA291EF15F093EF15F08E
:102B220098EF15F0010E016E0E501FEC13F0700EAF
:102B32000E240C6E0D6A0F0E0D220CC0D9FF0DC0B3
:102B4200DAFF0BC0DFFF12004F50D8A4ABEF15F035
:102B5200ADEF15F0C5EF15F0000E6D6E000E696E4B
:102B6200160E6F6E9F0E6B6E7B0E696EA28AA08A26
:102B7200BCEF15F06D866DA6C1EF15F0C3EF15F031
:102B8200BBEF15F0010E4F6E1200000E4B6E000EE1
:102B9200106E740E0F6E000E116E000E126E000E8D
:102BA200146E000E136EBFEC13F06D926994DBEF9E
:102BB20015F0689468B4E0EF15F0E2EF15F0DAEF83
:102BC20015F0000E426E12000001A96FA9C0A8F014
:102BD200010E0001A817A83BA8478C50A819DF0BCB
:102BE200A8198C6EA9C0A8F0D890A833010EA81716
:102BF200A83BA847A8478C50A819BF0BA8198C6EF0
:102C02001200C282C2B208EF16F00AEF16F003EF0A
:102C120016F0C350C4CFAAF00001AB6BAAC0ABF050
:102C2200AA6BAA27000EAB23A8C0D9FFA9C0DAFF5E
:102C3200AAC0DEFFABC0DDFF12001F0E4F6424EFFF
:102C420016F026EF16F033EF16F06DB22BEF16F0FA
:102C52002DEF16F033EF16F0000E0001A96FA869F0
:102C620038EF16F0000E0001A96F000EA86FA851F0
:102C72001200D38E000E926E000E936E000E956EB1
:102C82008C9E898A8998928092849286C30EC216FB
:102C9200C280C188C18AF00EC116C08EC70EC0168E
:102CA200C050F80B0609C06E1200010E2C26000E51
:102CB2002D222E222F224B50D8A462EF16F064EF61
:102CC20016F06EEF16F0422A4250D8A46BEF16F0BF
:102CD2006DEF16F06EEF16F042681200F2AC74EF70
:102CE20016F076EF16F086EF16F0A0AA7BEF16F03C
:102CF2007DEF16F086EF16F0A1AA82EF16F084EFB0
:102D020016F086EF16F007EC06F012006984689858
:102D12006D82010E4B6E000E426E000E106E750E2D
:102D22000F6E000E116E000E126E000E146E000E6B
:102D3200136EBFEC13F01200A09A4150D8A4A4EF76
:102D420016F0A6EF16F0B0EF16F0A8C033F0A9C047
:102D520034F0AAC040F0010E3F6E010E416EA08A0F
:102D62001200F28EF28CFEEC0BF0A5EC15F01200C4
:102D72008C8E12008C9E12008C8812008C9812008D
:042D8200A186A186FF
:020000040020DA
:08000000FFFFFFFFFFFFFFFF00
:020000040030CA
:0E000000380E391EFF8381FF0FC00FE00F4046
:00000001FF
